{
  "contractName": "DeedToken",
  "abi": [
    {
      "constant": true,
      "inputs": [
        {
          "name": "",
          "type": "uint256"
        }
      ],
      "name": "allTokens",
      "outputs": [
        {
          "name": "x",
          "type": "uint8"
        },
        {
          "name": "y",
          "type": "uint8"
        },
        {
          "name": "z",
          "type": "uint8"
        }
      ],
      "payable": false,
      "stateMutability": "view",
      "type": "function",
      "signature": "0x634282af"
    },
    {
      "constant": true,
      "inputs": [
        {
          "name": "",
          "type": "uint256"
        }
      ],
      "name": "allValidTokenIds",
      "outputs": [
        {
          "name": "",
          "type": "uint256"
        }
      ],
      "payable": false,
      "stateMutability": "view",
      "type": "function",
      "signature": "0x700319c5"
    },
    {
      "constant": true,
      "inputs": [],
      "name": "owner",
      "outputs": [
        {
          "name": "",
          "type": "address"
        }
      ],
      "payable": false,
      "stateMutability": "view",
      "type": "function",
      "signature": "0x8da5cb5b"
    },
    {
      "inputs": [],
      "payable": false,
      "stateMutability": "nonpayable",
      "type": "constructor",
      "signature": "constructor"
    },
    {
      "payable": true,
      "stateMutability": "payable",
      "type": "fallback"
    },
    {
      "anonymous": false,
      "inputs": [
        {
          "indexed": true,
          "name": "_from",
          "type": "address"
        },
        {
          "indexed": true,
          "name": "_to",
          "type": "address"
        },
        {
          "indexed": true,
          "name": "_tokenId",
          "type": "uint256"
        }
      ],
      "name": "Transfer",
      "type": "event",
      "signature": "0xddf252ad1be2c89b69c2b068fc378daa952ba7f163c4a11628f55a4df523b3ef"
    },
    {
      "anonymous": false,
      "inputs": [
        {
          "indexed": true,
          "name": "_owner",
          "type": "address"
        },
        {
          "indexed": true,
          "name": "_approved",
          "type": "address"
        },
        {
          "indexed": true,
          "name": "_tokenId",
          "type": "uint256"
        }
      ],
      "name": "Approval",
      "type": "event",
      "signature": "0x8c5be1e5ebec7d5bd14f71427d1e84f3dd0314c0f7b2291e5b200ac8c7c3b925"
    },
    {
      "anonymous": false,
      "inputs": [
        {
          "indexed": true,
          "name": "_owner",
          "type": "address"
        },
        {
          "indexed": true,
          "name": "_operator",
          "type": "address"
        },
        {
          "indexed": false,
          "name": "_approved",
          "type": "bool"
        }
      ],
      "name": "ApprovalForAll",
      "type": "event",
      "signature": "0x17307eab39ab6107e8899845ad3d59bd9653f200f220920489ca2b5937696c31"
    },
    {
      "constant": true,
      "inputs": [
        {
          "name": "interfaceID",
          "type": "bytes4"
        }
      ],
      "name": "supportsInterface",
      "outputs": [
        {
          "name": "",
          "type": "bool"
        }
      ],
      "payable": false,
      "stateMutability": "view",
      "type": "function",
      "signature": "0x01ffc9a7"
    },
    {
      "constant": true,
      "inputs": [
        {
          "name": "_owner",
          "type": "address"
        }
      ],
      "name": "balanceOf",
      "outputs": [
        {
          "name": "",
          "type": "uint256"
        }
      ],
      "payable": false,
      "stateMutability": "view",
      "type": "function",
      "signature": "0x70a08231"
    },
    {
      "constant": true,
      "inputs": [
        {
          "name": "_tokenId",
          "type": "uint256"
        }
      ],
      "name": "ownerOf",
      "outputs": [
        {
          "name": "",
          "type": "address"
        }
      ],
      "payable": false,
      "stateMutability": "view",
      "type": "function",
      "signature": "0x6352211e"
    },
    {
      "constant": false,
      "inputs": [
        {
          "name": "_from",
          "type": "address"
        },
        {
          "name": "_to",
          "type": "address"
        },
        {
          "name": "_tokenId",
          "type": "uint256"
        }
      ],
      "name": "transferFrom",
      "outputs": [],
      "payable": true,
      "stateMutability": "payable",
      "type": "function",
      "signature": "0x23b872dd"
    },
    {
      "constant": false,
      "inputs": [
        {
          "name": "_from",
          "type": "address"
        },
        {
          "name": "_to",
          "type": "address"
        },
        {
          "name": "_tokenId",
          "type": "uint256"
        },
        {
          "name": "data",
          "type": "bytes"
        }
      ],
      "name": "safeTransferFrom",
      "outputs": [],
      "payable": true,
      "stateMutability": "payable",
      "type": "function",
      "signature": "0xb88d4fde"
    },
    {
      "constant": false,
      "inputs": [
        {
          "name": "_from",
          "type": "address"
        },
        {
          "name": "_to",
          "type": "address"
        },
        {
          "name": "_tokenId",
          "type": "uint256"
        }
      ],
      "name": "safeTransferFrom",
      "outputs": [],
      "payable": true,
      "stateMutability": "payable",
      "type": "function",
      "signature": "0x42842e0e"
    },
    {
      "constant": false,
      "inputs": [
        {
          "name": "_approved",
          "type": "address"
        },
        {
          "name": "_tokenId",
          "type": "uint256"
        }
      ],
      "name": "approve",
      "outputs": [],
      "payable": true,
      "stateMutability": "payable",
      "type": "function",
      "signature": "0x095ea7b3"
    },
    {
      "constant": false,
      "inputs": [
        {
          "name": "_operator",
          "type": "address"
        },
        {
          "name": "_approved",
          "type": "bool"
        }
      ],
      "name": "setApprovalForAll",
      "outputs": [],
      "payable": false,
      "stateMutability": "nonpayable",
      "type": "function",
      "signature": "0xa22cb465"
    },
    {
      "constant": true,
      "inputs": [
        {
          "name": "_tokenId",
          "type": "uint256"
        }
      ],
      "name": "getApproved",
      "outputs": [
        {
          "name": "",
          "type": "address"
        }
      ],
      "payable": false,
      "stateMutability": "view",
      "type": "function",
      "signature": "0x081812fc"
    },
    {
      "constant": true,
      "inputs": [
        {
          "name": "_owner",
          "type": "address"
        },
        {
          "name": "_operator",
          "type": "address"
        }
      ],
      "name": "isApprovedForAll",
      "outputs": [
        {
          "name": "",
          "type": "bool"
        }
      ],
      "payable": false,
      "stateMutability": "view",
      "type": "function",
      "signature": "0xe985e9c5"
    },
    {
      "constant": false,
      "inputs": [
        {
          "name": "_x",
          "type": "uint8"
        },
        {
          "name": "_y",
          "type": "uint8"
        },
        {
          "name": "_z",
          "type": "uint8"
        }
      ],
      "name": "mint",
      "outputs": [],
      "payable": true,
      "stateMutability": "payable",
      "type": "function",
      "signature": "0xe6f12af9"
    },
    {
      "constant": false,
      "inputs": [
        {
          "name": "_tokenId",
          "type": "uint256"
        }
      ],
      "name": "burn",
      "outputs": [],
      "payable": false,
      "stateMutability": "nonpayable",
      "type": "function",
      "signature": "0x42966c68"
    },
    {
      "constant": true,
      "inputs": [],
      "name": "totalSupply",
      "outputs": [
        {
          "name": "",
          "type": "uint256"
        }
      ],
      "payable": false,
      "stateMutability": "view",
      "type": "function",
      "signature": "0x18160ddd"
    },
    {
      "constant": true,
      "inputs": [
        {
          "name": "index",
          "type": "uint256"
        }
      ],
      "name": "tokenByIndex",
      "outputs": [
        {
          "name": "",
          "type": "uint256"
        }
      ],
      "payable": false,
      "stateMutability": "view",
      "type": "function",
      "signature": "0x4f6ccce7"
    },
    {
      "constant": true,
      "inputs": [],
      "name": "name",
      "outputs": [
        {
          "name": "",
          "type": "string"
        }
      ],
      "payable": false,
      "stateMutability": "pure",
      "type": "function",
      "signature": "0x06fdde03"
    },
    {
      "constant": true,
      "inputs": [],
      "name": "symbol",
      "outputs": [
        {
          "name": "",
          "type": "string"
        }
      ],
      "payable": false,
      "stateMutability": "pure",
      "type": "function",
      "signature": "0x95d89b41"
    },
    {
      "constant": false,
      "inputs": [],
      "name": "kill",
      "outputs": [],
      "payable": false,
      "stateMutability": "nonpayable",
      "type": "function",
      "signature": "0x41c0e1b5"
    }
  ],
  "bytecode": "0x608060405234801561001057600080fd5b50336000806101000a81548173ffffffffffffffffffffffffffffffffffffffff021916908373ffffffffffffffffffffffffffffffffffffffff16021790555060018060006301ffc9a77c0100000000000000000000000000000000000000000000000000000000027bffffffffffffffffffffffffffffffffffffffffffffffffffffffff1916815260200190815260200160002060006101000a81548160ff02191690831515021790555060018060006380ac58cd7c0100000000000000000000000000000000000000000000000000000000027bffffffffffffffffffffffffffffffffffffffffffffffffffffffff1916815260200190815260200160002060006101000a81548160ff02191690831515021790555061212f8061013a6000396000f3fe608060405260043610610112576000357c0100000000000000000000000000000000000000000000000000000000900463ffffffff16806301ffc9a71461011457806306fdde0314610186578063081812fc14610216578063095ea7b31461029157806318160ddd146102df57806323b872dd1461030a57806341c0e1b51461037857806342842e0e1461038f57806342966c68146103fd5780634f6ccce714610438578063634282af146104875780636352211e146104f6578063700319c51461057157806370a08231146105c05780638da5cb5b1461062557806395d89b411461067c578063a22cb4651461070c578063b88d4fde14610769578063e6f12af91461086e578063e985e9c5146108b9575b005b34801561012057600080fd5b5061016c6004803603602081101561013757600080fd5b8101908080357bffffffffffffffffffffffffffffffffffffffffffffffffffffffff19169060200190929190505050610942565b604051808215151515815260200191505060405180910390f35b34801561019257600080fd5b5061019b6109aa565b6040518080602001828103825283818151815260200191508051906020019080838360005b838110156101db5780820151818401526020810190506101c0565b50505050905090810190601f1680156102085780820380516001836020036101000a031916815260200191505b509250505060405180910390f35b34801561022257600080fd5b5061024f6004803603602081101561023957600080fd5b81019080803590602001909291905050506109e7565b604051808273ffffffffffffffffffffffffffffffffffffffff1673ffffffffffffffffffffffffffffffffffffffff16815260200191505060405180910390f35b6102dd600480360360408110156102a757600080fd5b81019080803573ffffffffffffffffffffffffffffffffffffffff16906020019092919080359060200190929190505050610a24565b005b3480156102eb57600080fd5b506102f4610c1d565b6040518082815260200191505060405180910390f35b6103766004803603606081101561032057600080fd5b81019080803573ffffffffffffffffffffffffffffffffffffffff169060200190929190803573ffffffffffffffffffffffffffffffffffffffff16906020019092919080359060200190929190505050610c2a565b005b34801561038457600080fd5b5061038d6111f3565b005b6103fb600480360360608110156103a557600080fd5b81019080803573ffffffffffffffffffffffffffffffffffffffff169060200190929190803573ffffffffffffffffffffffffffffffffffffffff16906020019092919080359060200190929190505050611317565b005b34801561040957600080fd5b506104366004803603602081101561042057600080fd5b8101908080359060200190929190505050611338565b005b34801561044457600080fd5b506104716004803603602081101561045b57600080fd5b8101908080359060200190929190505050611600565b6040518082815260200191505060405180910390f35b34801561049357600080fd5b506104c0600480360360208110156104aa57600080fd5b8101908080359060200190929190505050611638565b604051808460ff1660ff1681526020018360ff1660ff1681526020018260ff1660ff168152602001935050505060405180910390f35b34801561050257600080fd5b5061052f6004803603602081101561051957600080fd5b8101908080359060200190929190505050611694565b604051808273ffffffffffffffffffffffffffffffffffffffff1673ffffffffffffffffffffffffffffffffffffffff16815260200191505060405180910390f35b34801561057d57600080fd5b506105aa6004803603602081101561059457600080fd5b810190808035906020019092919050505061177b565b6040518082815260200191505060405180910390f35b3480156105cc57600080fd5b5061060f600480360360208110156105e357600080fd5b81019080803573ffffffffffffffffffffffffffffffffffffffff16906020019092919050505061179e565b6040518082815260200191505060405180910390f35b34801561063157600080fd5b5061063a611822565b604051808273ffffffffffffffffffffffffffffffffffffffff1673ffffffffffffffffffffffffffffffffffffffff16815260200191505060405180910390f35b34801561068857600080fd5b50610691611847565b6040518080602001828103825283818151815260200191508051906020019080838360005b838110156106d15780820151818401526020810190506106b6565b50505050905090810190601f1680156106fe5780820380516001836020036101000a031916815260200191505b509250505060405180910390f35b34801561071857600080fd5b506107676004803603604081101561072f57600080fd5b81019080803573ffffffffffffffffffffffffffffffffffffffff169060200190929190803515159060200190929190505050611884565b005b61086c6004803603608081101561077f57600080fd5b81019080803573ffffffffffffffffffffffffffffffffffffffff169060200190929190803573ffffffffffffffffffffffffffffffffffffffff16906020019092919080359060200190929190803590602001906401000000008111156107e657600080fd5b8201836020820111156107f857600080fd5b8035906020019184600183028401116401000000008311171561081a57600080fd5b91908080601f016020809104026020016040519081016040528093929190818152602001838380828437600081840152601f19601f820116905080830192505050505050509192919290505050611985565b005b6108b76004803603606081101561088457600080fd5b81019080803560ff169060200190929190803560ff169060200190929190803560ff169060200190929190505050611c75565b005b3480156108c557600080fd5b50610928600480360360408110156108dc57600080fd5b81019080803573ffffffffffffffffffffffffffffffffffffffff169060200190929190803573ffffffffffffffffffffffffffffffffffffffff169060200190929190505050611ece565b604051808215151515815260200191505060405180910390f35b600060016000837bffffffffffffffffffffffffffffffffffffffffffffffffffffffff19167bffffffffffffffffffffffffffffffffffffffffffffffffffffffff1916815260200190815260200160002060009054906101000a900460ff169050919050565b60606040805190810160405280600b81526020017f454d4f4a4920544f4b454e000000000000000000000000000000000000000000815250905090565b60006004600083815260200190815260200160002060009054906101000a900473ffffffffffffffffffffffffffffffffffffffff169050919050565b6000610a2f82611694565b90506000600560008373ffffffffffffffffffffffffffffffffffffffff1673ffffffffffffffffffffffffffffffffffffffff16815260200190815260200160002060003373ffffffffffffffffffffffffffffffffffffffff1673ffffffffffffffffffffffffffffffffffffffff16815260200190815260200160002060009054906101000a900460ff1690503373ffffffffffffffffffffffffffffffffffffffff168273ffffffffffffffffffffffffffffffffffffffff161480610af65750805b1515610b6a576040517f08c379a00000000000000000000000000000000000000000000000000000000081526004018080602001828103825260158152602001807f4e6f7420617070726f766564206279206f776e6572000000000000000000000081525060200191505060405180910390fd5b836004600085815260200190815260200160002060006101000a81548173ffffffffffffffffffffffffffffffffffffffff021916908373ffffffffffffffffffffffffffffffffffffffff160217905550828473ffffffffffffffffffffffffffffffffffffffff168373ffffffffffffffffffffffffffffffffffffffff167f8c5be1e5ebec7d5bd14f71427d1e84f3dd0314c0f7b2291e5b200ac8c7c3b92560405160405180910390a450505050565b6000600780549050905090565b6000610c3582611694565b90508373ffffffffffffffffffffffffffffffffffffffff168173ffffffffffffffffffffffffffffffffffffffff16141515610d00576040517f08c379a00000000000000000000000000000000000000000000000000000000081526004018080602001828103825260238152602001807f5f66726f6d206973204e4f5420746865206f776e6572206f662074686520746f81526020017f6b656e000000000000000000000000000000000000000000000000000000000081525060400191505060405180910390fd5b600073ffffffffffffffffffffffffffffffffffffffff168373ffffffffffffffffffffffffffffffffffffffff1614151515610da5576040517f08c379a00000000000000000000000000000000000000000000000000000000081526004018080602001828103825260188152602001807f5472616e73666572205f746f206164647265737320307830000000000000000081525060200191505060405180910390fd5b60006004600084815260200190815260200160002060009054906101000a900473ffffffffffffffffffffffffffffffffffffffff1690506000600560008473ffffffffffffffffffffffffffffffffffffffff1673ffffffffffffffffffffffffffffffffffffffff16815260200190815260200160002060003373ffffffffffffffffffffffffffffffffffffffff1673ffffffffffffffffffffffffffffffffffffffff16815260200190815260200160002060009054906101000a900460ff1690503373ffffffffffffffffffffffffffffffffffffffff168373ffffffffffffffffffffffffffffffffffffffff161480610ed057503373ffffffffffffffffffffffffffffffffffffffff168273ffffffffffffffffffffffffffffffffffffffff16145b80610ed85750805b1515610f72576040517f08c379a000000000000000000000000000000000000000000000000000000000815260040180806020018281038252602b8152602001807f6d73672e73656e64657220646f6573206e6f742068617665207472616e73666581526020017f7261626c6520746f6b656e00000000000000000000000000000000000000000081525060400191505060405180910390fd5b846002600086815260200190815260200160002060006101000a81548173ffffffffffffffffffffffffffffffffffffffff021916908373ffffffffffffffffffffffffffffffffffffffff1602179055506110176001600360008973ffffffffffffffffffffffffffffffffffffffff1673ffffffffffffffffffffffffffffffffffffffff16815260200190815260200160002054611f6290919063ffffffff16565b600360008873ffffffffffffffffffffffffffffffffffffffff1673ffffffffffffffffffffffffffffffffffffffff168152602001908152602001600020819055506110ad6001600360008873ffffffffffffffffffffffffffffffffffffffff1673ffffffffffffffffffffffffffffffffffffffff16815260200190815260200160002054611f8490919063ffffffff16565b600360008773ffffffffffffffffffffffffffffffffffffffff1673ffffffffffffffffffffffffffffffffffffffff16815260200190815260200160002081905550600073ffffffffffffffffffffffffffffffffffffffff166004600086815260200190815260200160002060009054906101000a900473ffffffffffffffffffffffffffffffffffffffff1673ffffffffffffffffffffffffffffffffffffffff16141515611190576004600085815260200190815260200160002060006101000a81549073ffffffffffffffffffffffffffffffffffffffff02191690555b838573ffffffffffffffffffffffffffffffffffffffff168773ffffffffffffffffffffffffffffffffffffffff167fddf252ad1be2c89b69c2b068fc378daa952ba7f163c4a11628f55a4df523b3ef60405160405180910390a4505050505050565b6000809054906101000a900473ffffffffffffffffffffffffffffffffffffffff1673ffffffffffffffffffffffffffffffffffffffff163373ffffffffffffffffffffffffffffffffffffffff161415156112dd576040517f08c379a00000000000000000000000000000000000000000000000000000000081526004018080602001828103825260228152602001807f4f6e6c79206f776e65722063616e2063616c6c20746869732066756e6374696f81526020017f6e2e00000000000000000000000000000000000000000000000000000000000081525060400191505060405180910390fd5b6000809054906101000a900473ffffffffffffffffffffffffffffffffffffffff1673ffffffffffffffffffffffffffffffffffffffff16ff5b6113338383836020604051908101604052806000815250611985565b505050565b600061134382611694565b90503373ffffffffffffffffffffffffffffffffffffffff168173ffffffffffffffffffffffffffffffffffffffff1614151561140e576040517f08c379a00000000000000000000000000000000000000000000000000000000081526004018080602001828103825260288152602001807f6d73672e73656e646572206973204e4f5420746865206f776e6572206f66207481526020017f686520746f6b656e00000000000000000000000000000000000000000000000081525060400191505060405180910390fd5b600073ffffffffffffffffffffffffffffffffffffffff166004600084815260200190815260200160002060009054906101000a900473ffffffffffffffffffffffffffffffffffffffff1673ffffffffffffffffffffffffffffffffffffffff161415156114ae576004600083815260200190815260200160002060006101000a81549073ffffffffffffffffffffffffffffffffffffffff02191690555b60006002600084815260200190815260200160002060006101000a81548173ffffffffffffffffffffffffffffffffffffffff021916908373ffffffffffffffffffffffffffffffffffffffff1602179055506115546001600360003373ffffffffffffffffffffffffffffffffffffffff1673ffffffffffffffffffffffffffffffffffffffff16815260200190815260200160002054611f6290919063ffffffff16565b600360003373ffffffffffffffffffffffffffffffffffffffff1673ffffffffffffffffffffffffffffffffffffffff168152602001908152602001600020819055506115a082611fa5565b81600073ffffffffffffffffffffffffffffffffffffffff168273ffffffffffffffffffffffffffffffffffffffff167fddf252ad1be2c89b69c2b068fc378daa952ba7f163c4a11628f55a4df523b3ef60405160405180910390a45050565b600061160a610c1d565b8210151561161757600080fd5b60078281548110151561162657fe5b90600052602060002001549050919050565b60068181548110151561164757fe5b906000526020600020016000915090508060000160009054906101000a900460ff16908060000160019054906101000a900460ff16908060000160029054906101000a900460ff16905083565b6000806002600084815260200190815260200160002060009054906101000a900473ffffffffffffffffffffffffffffffffffffffff169050600073ffffffffffffffffffffffffffffffffffffffff168173ffffffffffffffffffffffffffffffffffffffff1614151515611772576040517f08c379a00000000000000000000000000000000000000000000000000000000081526004018080602001828103825260108152602001807f546f6b656e20697320696e76616c69640000000000000000000000000000000081525060200191505060405180910390fd5b80915050919050565b60078181548110151561178a57fe5b906000526020600020016000915090505481565b60008073ffffffffffffffffffffffffffffffffffffffff168273ffffffffffffffffffffffffffffffffffffffff16141515156117db57600080fd5b600360008373ffffffffffffffffffffffffffffffffffffffff1673ffffffffffffffffffffffffffffffffffffffff168152602001908152602001600020549050919050565b6000809054906101000a900473ffffffffffffffffffffffffffffffffffffffff1681565b60606040805190810160405280600381526020017f454d4a0000000000000000000000000000000000000000000000000000000000815250905090565b80600560003373ffffffffffffffffffffffffffffffffffffffff1673ffffffffffffffffffffffffffffffffffffffff16815260200190815260200160002060008473ffffffffffffffffffffffffffffffffffffffff1673ffffffffffffffffffffffffffffffffffffffff16815260200190815260200160002060006101000a81548160ff0219169083151502179055508173ffffffffffffffffffffffffffffffffffffffff163373ffffffffffffffffffffffffffffffffffffffff167f17307eab39ab6107e8899845ad3d59bd9653f200f220920489ca2b5937696c3183604051808215151515815260200191505060405180910390a35050565b611990848484610c2a565b6119af8373ffffffffffffffffffffffffffffffffffffffff16612074565b15611c6f5760008373ffffffffffffffffffffffffffffffffffffffff1663150b7a02338786866040518563ffffffff167c0100000000000000000000000000000000000000000000000000000000028152600401808573ffffffffffffffffffffffffffffffffffffffff1673ffffffffffffffffffffffffffffffffffffffff1681526020018473ffffffffffffffffffffffffffffffffffffffff1673ffffffffffffffffffffffffffffffffffffffff16815260200183815260200180602001828103825283818151815260200191508051906020019080838360005b83811015611aab578082015181840152602081019050611a90565b50505050905090810190601f168015611ad85780820380516001836020036101000a031916815260200191505b5095505050505050602060405180830381600087803b158015611afa57600080fd5b505af1158015611b0e573d6000803e3d6000fd5b505050506040513d6020811015611b2457600080fd5b8101908080519060200190929190505050905060405180807f6f6e455243373231526563656976656428616464726573732c6164647265737381526020017f2c75696e743235362c6279746573290000000000000000000000000000000000815250602f01905060405180910390207bffffffffffffffffffffffffffffffffffffffffffffffffffffffff1916817bffffffffffffffffffffffffffffffffffffffffffffffffffffffff1916141515611c6d576040517f08c379a00000000000000000000000000000000000000000000000000000000081526004018080602001828103825260218152602001807f72656365697074206f6620746f6b656e206973204e4f5420636f6d706c65746581526020017f640000000000000000000000000000000000000000000000000000000000000081525060400191505060405180910390fd5b505b50505050565b611c7d612087565b6060604051908101604052808560ff1681526020018460ff1681526020018360ff1681525090506000600160068390806001815401808255809150509060018203906000526020600020016000909192909190915060008201518160000160006101000a81548160ff021916908360ff16021790555060208201518160000160016101000a81548160ff021916908360ff16021790555060408201518160000160026101000a81548160ff021916908360ff1602179055505050039050336002600083815260200190815260200160002060006101000a81548173ffffffffffffffffffffffffffffffffffffffff021916908373ffffffffffffffffffffffffffffffffffffffff160217905550611ddf6001600360003373ffffffffffffffffffffffffffffffffffffffff1673ffffffffffffffffffffffffffffffffffffffff16815260200190815260200160002054611f8490919063ffffffff16565b600360003373ffffffffffffffffffffffffffffffffffffffff1673ffffffffffffffffffffffffffffffffffffffff1681526020019081526020016000208190555060078054905060086000838152602001908152602001600020819055506007819080600181540180825580915050906001820390600052602060002001600090919290919091505550803373ffffffffffffffffffffffffffffffffffffffff16600073ffffffffffffffffffffffffffffffffffffffff167fddf252ad1be2c89b69c2b068fc378daa952ba7f163c4a11628f55a4df523b3ef60405160405180910390a45050505050565b6000600560008473ffffffffffffffffffffffffffffffffffffffff1673ffffffffffffffffffffffffffffffffffffffff16815260200190815260200160002060008373ffffffffffffffffffffffffffffffffffffffff1673ffffffffffffffffffffffffffffffffffffffff16815260200190815260200160002060009054906101000a900460ff16905092915050565b6000828211151515611f7357600080fd5b600082840390508091505092915050565b6000808284019050838110151515611f9b57600080fd5b8091505092915050565b6000611fc06001600780549050611f6290919063ffffffff16565b90506000600860008481526020019081526020016000205490506000600783815481101515611feb57fe5b906000526020600020015490508060078381548110151561200857fe5b90600052602060002001819055508160086000838152602001908152602001600020819055506120476001600780549050611f6290919063ffffffff16565b60078161205491906120b2565b506000600860008681526020019081526020016000208190555050505050565b600080823b905060008111915050919050565b606060405190810160405280600060ff168152602001600060ff168152602001600060ff1681525090565b8154818355818111156120d9578183600052602060002091820191016120d891906120de565b5b505050565b61210091905b808211156120fc5760008160009055506001016120e4565b5090565b9056fea165627a7a723058209c55d3494085a67879d218981a32c3a0f80bef4c97489e3738a1af0b233845820029",
  "source": "pragma solidity ^0.5.0;\r\n\r\nimport \"./ERC721.sol\";\r\nimport \"./ERC165.sol\";\r\nimport \"./SafeMath.sol\";\r\nimport \"./Address.sol\";\r\n\r\ncontract DeedToken is ERC721, ERC165 {\r\n\r\n    using SafeMath for uint256;\r\n    using Address for address;\r\n\r\n    address payable public owner;\r\n    mapping(bytes4 => bool) supportedInterfaces;\r\n\r\n    mapping(uint256 => address) tokenOwners;\r\n    mapping(address => uint256) balances;\r\n    mapping(uint256 => address) allowance;\r\n    mapping(address => mapping(address => bool)) operators;\r\n\r\n    struct asset {\r\n        uint8 x;\r\n        uint8 y;\r\n        uint8 z;\r\n    }\r\n\r\n    asset[] public allTokens;\r\n\r\n    //for enumeration\r\n    uint256[] public allValidTokenIds; //same as allTokens but does't have invalid tokens\r\n    mapping(uint256 => uint256) private allValidTokenIndex;\r\n\r\n\r\n    modifier onlyOwner {\r\n        require(msg.sender == owner, \"Only owner can call this function.\");\r\n        _;\r\n    }\r\n\r\n    constructor() public {\r\n        owner = msg.sender;\r\n        supportedInterfaces[0x01ffc9a7] = true; //ERC165\r\n        supportedInterfaces[0x80ac58cd] = true; //ERC721\r\n    }\r\n\r\n    function supportsInterface(bytes4 interfaceID) external view returns (bool){\r\n        return supportedInterfaces[interfaceID];\r\n    }\r\n\r\n    function balanceOf(address _owner) external view returns (uint256) {\r\n        require(_owner != address(0));\r\n        return balances[_owner];\r\n    }\r\n\r\n    function ownerOf(uint256 _tokenId) public view returns (address) {\r\n\r\n        address addr_owner = tokenOwners[_tokenId];\r\n        require(\r\n            addr_owner != address(0),\r\n            \"Token is invalid\"\r\n        );\r\n        return addr_owner;\r\n    }\r\n\r\n    function transferFrom(address _from, address _to, uint256 _tokenId) public payable {\r\n\r\n        address addr_owner = ownerOf(_tokenId);\r\n\r\n        require(\r\n            addr_owner == _from,\r\n            \"_from is NOT the owner of the token\"\r\n        );\r\n\r\n        require(\r\n            _to != address(0),\r\n            \"Transfer _to address 0x0\"\r\n        );\r\n\r\n        address addr_allowed = allowance[_tokenId];\r\n        bool isOp = operators[addr_owner][msg.sender];\r\n\r\n        require(\r\n            addr_owner == msg.sender || addr_allowed == msg.sender || isOp,\r\n            \"msg.sender does not have transferable token\"\r\n        );\r\n\r\n\r\n        //transfer : change the owner of the token\r\n        tokenOwners[_tokenId] = _to;\r\n        balances[_from] = balances[_from].sub(1);\r\n        balances[_to] = balances[_to].add(1);\r\n\r\n        //reset approved address\r\n        if (allowance[_tokenId] != address(0)) {\r\n            delete allowance[_tokenId];\r\n        }\r\n\r\n        emit Transfer(_from, _to, _tokenId);\r\n\r\n    }\r\n\r\n    function safeTransferFrom(address _from, address _to, uint256 _tokenId, bytes memory data) public payable {\r\n\r\n        transferFrom(_from, _to, _tokenId);\r\n\r\n        //check if _to is CA\r\n        if (_to.isContract()) {\r\n            bytes4 result = ERC721TokenReceiver(_to).onERC721Received(msg.sender, _from, _tokenId, data);\r\n\r\n            require(\r\n                result == bytes4(keccak256(\"onERC721Received(address,address,uint256,bytes)\")),\r\n                \"receipt of token is NOT completed\"\r\n            );\r\n        }\r\n\r\n    }\r\n\r\n    function safeTransferFrom(address _from, address _to, uint256 _tokenId) public payable {\r\n        safeTransferFrom(_from, _to, _tokenId, \"\");\r\n    }\r\n\r\n\r\n    function approve(address _approved, uint256 _tokenId) external payable {\r\n\r\n        address addr_owner = ownerOf(_tokenId);\r\n        bool isOp = operators[addr_owner][msg.sender];\r\n\r\n        require(\r\n            addr_owner == msg.sender || isOp,\r\n            \"Not approved by owner\"\r\n        );\r\n\r\n        allowance[_tokenId] = _approved;\r\n\r\n        emit Approval(addr_owner, _approved, _tokenId);\r\n    }\r\n\r\n    function setApprovalForAll(address _operator, bool _approved) external {\r\n        operators[msg.sender][_operator] = _approved;\r\n        emit ApprovalForAll(msg.sender, _operator, _approved);\r\n    }\r\n\r\n\r\n    function getApproved(uint256 _tokenId) external view returns (address) {\r\n        return allowance[_tokenId];\r\n    }\r\n\r\n    function isApprovedForAll(address _owner, address _operator) external view returns (bool) {\r\n        return operators[_owner][_operator];\r\n    }\r\n\r\n\r\n    //non-ERC721 standard\r\n    //\r\n    //\r\n    function () external payable {}\r\n\r\n    function mint(uint8 _x, uint8 _y, uint8 _z) external payable {\r\n\r\n        asset memory newAsset = asset(_x, _y, _z);\r\n        uint tokenId = allTokens.push(newAsset) - 1;\r\n        //token id starts from 0, index of assets array\r\n        tokenOwners[tokenId] = msg.sender;\r\n        balances[msg.sender] = balances[msg.sender].add(1);\r\n\r\n        //for enumeration\r\n        allValidTokenIndex[tokenId] = allValidTokenIds.length;\r\n        //index starts from 0\r\n        allValidTokenIds.push(tokenId);\r\n\r\n        emit Transfer(address(0), msg.sender, tokenId);\r\n    }\r\n\r\n    function burn(uint _tokenId) external {\r\n\r\n        address addr_owner = ownerOf(_tokenId);\r\n\r\n        require(\r\n            addr_owner == msg.sender,\r\n            \"msg.sender is NOT the owner of the token\"\r\n        );\r\n\r\n        //reset approved address\r\n        if (allowance[_tokenId] != address(0)) {\r\n            delete allowance[_tokenId];\r\n            // tokenId => 0\r\n        }\r\n\r\n        //transfer : change the owner of the token, but address(0)\r\n        tokenOwners[_tokenId] = address(0);\r\n        balances[msg.sender] = balances[msg.sender].sub(1);\r\n\r\n        //for enumeration\r\n        removeInvalidToken(_tokenId);\r\n\r\n        emit Transfer(addr_owner, address(0), _tokenId);\r\n    }\r\n\r\n    function removeInvalidToken(uint256 tokenIdToRemove) private {\r\n\r\n        uint256 lastIndex = allValidTokenIds.length.sub(1);\r\n        uint256 removeIndex = allValidTokenIndex[tokenIdToRemove];\r\n\r\n        uint256 lastTokenId = allValidTokenIds[lastIndex];\r\n\r\n        //swap\r\n        allValidTokenIds[removeIndex] = lastTokenId;\r\n        allValidTokenIndex[lastTokenId] = removeIndex;\r\n\r\n        //delete\r\n        //Arrays have a length member to hold their number of elements.\r\n        //Dynamic arrays can be resized in storage (not in memory) by changing the .length member.\r\n        allValidTokenIds.length = allValidTokenIds.length.sub(1);\r\n        //allValidTokenIndex is private so can't access invalid token by index programmatically\r\n        allValidTokenIndex[tokenIdToRemove] = 0;\r\n    }\r\n\r\n    //ERC721Enumerable\r\n    function totalSupply() public view returns (uint) {\r\n        return allValidTokenIds.length;\r\n    }\r\n\r\n    //ERC721Enumerable\r\n    function tokenByIndex(uint256 index) public view returns (uint256) {\r\n        require(index < totalSupply());\r\n        return allValidTokenIds[index];\r\n    }\r\n\r\n    //ERC721Metadata\r\n    function name() external pure returns (string memory) {\r\n        return \"EMOJI TOKEN\";\r\n    }\r\n\r\n    //ERC721Metadata\r\n    function symbol() external pure returns (string memory) {\r\n        return \"EMJ\";\r\n    }\r\n\r\n    function kill() external onlyOwner {\r\n        selfdestruct(owner);\r\n    }\r\n\r\n\r\n}\r\n\r\ncontract ERC721TokenReceiver {\r\n\r\n    function onERC721Received(address _operator, address _from, uint256 _tokenId, bytes memory _data) public returns (bytes4);\r\n}",
  "sourcePath": "/Users/camou/Projects/drizzle-dapp/contracts/DeedToken.sol",
  "compiler": {
    "name": "solc",
    "version": "0.5.0+commit.1d4f565a.Emscripten.clang"
  },
  "schemaVersion": "3.0.6",
  "updatedAt": "2019-05-27T15:24:25.841Z",
  "devdoc": {
    "methods": {}
  },
  "userdoc": {
    "methods": {}
  }
}