{
  "contractName": "DeedIPFSToken",
  "abi": [
    {
      "constant": true,
      "inputs": [
        {
          "name": "",
          "type": "uint256"
        }
      ],
      "name": "allTokens",
      "outputs": [
        {
          "name": "ipfsHash",
          "type": "string"
        }
      ],
      "payable": false,
      "stateMutability": "view",
      "type": "function",
      "signature": "0x634282af"
    },
    {
      "constant": true,
      "inputs": [
        {
          "name": "",
          "type": "uint256"
        }
      ],
      "name": "allValidTokenIds",
      "outputs": [
        {
          "name": "",
          "type": "uint256"
        }
      ],
      "payable": false,
      "stateMutability": "view",
      "type": "function",
      "signature": "0x700319c5"
    },
    {
      "constant": true,
      "inputs": [],
      "name": "owner",
      "outputs": [
        {
          "name": "",
          "type": "address"
        }
      ],
      "payable": false,
      "stateMutability": "view",
      "type": "function",
      "signature": "0x8da5cb5b"
    },
    {
      "inputs": [],
      "payable": false,
      "stateMutability": "nonpayable",
      "type": "constructor",
      "signature": "constructor"
    },
    {
      "payable": true,
      "stateMutability": "payable",
      "type": "fallback"
    },
    {
      "anonymous": false,
      "inputs": [
        {
          "indexed": true,
          "name": "_from",
          "type": "address"
        },
        {
          "indexed": true,
          "name": "_to",
          "type": "address"
        },
        {
          "indexed": true,
          "name": "_tokenId",
          "type": "uint256"
        }
      ],
      "name": "Transfer",
      "type": "event",
      "signature": "0xddf252ad1be2c89b69c2b068fc378daa952ba7f163c4a11628f55a4df523b3ef"
    },
    {
      "anonymous": false,
      "inputs": [
        {
          "indexed": true,
          "name": "_owner",
          "type": "address"
        },
        {
          "indexed": true,
          "name": "_approved",
          "type": "address"
        },
        {
          "indexed": true,
          "name": "_tokenId",
          "type": "uint256"
        }
      ],
      "name": "Approval",
      "type": "event",
      "signature": "0x8c5be1e5ebec7d5bd14f71427d1e84f3dd0314c0f7b2291e5b200ac8c7c3b925"
    },
    {
      "anonymous": false,
      "inputs": [
        {
          "indexed": true,
          "name": "_owner",
          "type": "address"
        },
        {
          "indexed": true,
          "name": "_operator",
          "type": "address"
        },
        {
          "indexed": false,
          "name": "_approved",
          "type": "bool"
        }
      ],
      "name": "ApprovalForAll",
      "type": "event",
      "signature": "0x17307eab39ab6107e8899845ad3d59bd9653f200f220920489ca2b5937696c31"
    },
    {
      "constant": true,
      "inputs": [
        {
          "name": "interfaceID",
          "type": "bytes4"
        }
      ],
      "name": "supportsInterface",
      "outputs": [
        {
          "name": "",
          "type": "bool"
        }
      ],
      "payable": false,
      "stateMutability": "view",
      "type": "function",
      "signature": "0x01ffc9a7"
    },
    {
      "constant": true,
      "inputs": [
        {
          "name": "_owner",
          "type": "address"
        }
      ],
      "name": "balanceOf",
      "outputs": [
        {
          "name": "",
          "type": "uint256"
        }
      ],
      "payable": false,
      "stateMutability": "view",
      "type": "function",
      "signature": "0x70a08231"
    },
    {
      "constant": true,
      "inputs": [
        {
          "name": "_tokenId",
          "type": "uint256"
        }
      ],
      "name": "ownerOf",
      "outputs": [
        {
          "name": "",
          "type": "address"
        }
      ],
      "payable": false,
      "stateMutability": "view",
      "type": "function",
      "signature": "0x6352211e"
    },
    {
      "constant": false,
      "inputs": [
        {
          "name": "_from",
          "type": "address"
        },
        {
          "name": "_to",
          "type": "address"
        },
        {
          "name": "_tokenId",
          "type": "uint256"
        }
      ],
      "name": "transferFrom",
      "outputs": [],
      "payable": true,
      "stateMutability": "payable",
      "type": "function",
      "signature": "0x23b872dd"
    },
    {
      "constant": false,
      "inputs": [
        {
          "name": "_from",
          "type": "address"
        },
        {
          "name": "_to",
          "type": "address"
        },
        {
          "name": "_tokenId",
          "type": "uint256"
        },
        {
          "name": "data",
          "type": "bytes"
        }
      ],
      "name": "safeTransferFrom",
      "outputs": [],
      "payable": true,
      "stateMutability": "payable",
      "type": "function",
      "signature": "0xb88d4fde"
    },
    {
      "constant": false,
      "inputs": [
        {
          "name": "_from",
          "type": "address"
        },
        {
          "name": "_to",
          "type": "address"
        },
        {
          "name": "_tokenId",
          "type": "uint256"
        }
      ],
      "name": "safeTransferFrom",
      "outputs": [],
      "payable": true,
      "stateMutability": "payable",
      "type": "function",
      "signature": "0x42842e0e"
    },
    {
      "constant": false,
      "inputs": [
        {
          "name": "_approved",
          "type": "address"
        },
        {
          "name": "_tokenId",
          "type": "uint256"
        }
      ],
      "name": "approve",
      "outputs": [],
      "payable": true,
      "stateMutability": "payable",
      "type": "function",
      "signature": "0x095ea7b3"
    },
    {
      "constant": false,
      "inputs": [
        {
          "name": "_operator",
          "type": "address"
        },
        {
          "name": "_approved",
          "type": "bool"
        }
      ],
      "name": "setApprovalForAll",
      "outputs": [],
      "payable": false,
      "stateMutability": "nonpayable",
      "type": "function",
      "signature": "0xa22cb465"
    },
    {
      "constant": true,
      "inputs": [
        {
          "name": "_tokenId",
          "type": "uint256"
        }
      ],
      "name": "getApproved",
      "outputs": [
        {
          "name": "",
          "type": "address"
        }
      ],
      "payable": false,
      "stateMutability": "view",
      "type": "function",
      "signature": "0x081812fc"
    },
    {
      "constant": true,
      "inputs": [
        {
          "name": "_owner",
          "type": "address"
        },
        {
          "name": "_operator",
          "type": "address"
        }
      ],
      "name": "isApprovedForAll",
      "outputs": [
        {
          "name": "",
          "type": "bool"
        }
      ],
      "payable": false,
      "stateMutability": "view",
      "type": "function",
      "signature": "0xe985e9c5"
    },
    {
      "constant": false,
      "inputs": [
        {
          "name": "ipfsHash",
          "type": "string"
        }
      ],
      "name": "mint",
      "outputs": [],
      "payable": true,
      "stateMutability": "payable",
      "type": "function",
      "signature": "0xd85d3d27"
    },
    {
      "constant": false,
      "inputs": [
        {
          "name": "_tokenId",
          "type": "uint256"
        }
      ],
      "name": "burn",
      "outputs": [],
      "payable": false,
      "stateMutability": "nonpayable",
      "type": "function",
      "signature": "0x42966c68"
    },
    {
      "constant": true,
      "inputs": [],
      "name": "totalSupply",
      "outputs": [
        {
          "name": "",
          "type": "uint256"
        }
      ],
      "payable": false,
      "stateMutability": "view",
      "type": "function",
      "signature": "0x18160ddd"
    },
    {
      "constant": true,
      "inputs": [
        {
          "name": "index",
          "type": "uint256"
        }
      ],
      "name": "tokenByIndex",
      "outputs": [
        {
          "name": "",
          "type": "uint256"
        }
      ],
      "payable": false,
      "stateMutability": "view",
      "type": "function",
      "signature": "0x4f6ccce7"
    },
    {
      "constant": true,
      "inputs": [],
      "name": "name",
      "outputs": [
        {
          "name": "",
          "type": "string"
        }
      ],
      "payable": false,
      "stateMutability": "pure",
      "type": "function",
      "signature": "0x06fdde03"
    },
    {
      "constant": true,
      "inputs": [],
      "name": "symbol",
      "outputs": [
        {
          "name": "",
          "type": "string"
        }
      ],
      "payable": false,
      "stateMutability": "pure",
      "type": "function",
      "signature": "0x95d89b41"
    },
    {
      "constant": true,
      "inputs": [
        {
          "name": "_tokenId",
          "type": "uint256"
        }
      ],
      "name": "tokenURI",
      "outputs": [
        {
          "name": "",
          "type": "string"
        }
      ],
      "payable": false,
      "stateMutability": "view",
      "type": "function",
      "signature": "0xc87b56dd"
    },
    {
      "constant": false,
      "inputs": [],
      "name": "kill",
      "outputs": [],
      "payable": false,
      "stateMutability": "nonpayable",
      "type": "function",
      "signature": "0x41c0e1b5"
    }
  ],
  "bytecode": "0x608060405234801561001057600080fd5b50336000806101000a81548173ffffffffffffffffffffffffffffffffffffffff021916908373ffffffffffffffffffffffffffffffffffffffff16021790555060018060006301ffc9a77c0100000000000000000000000000000000000000000000000000000000027bffffffffffffffffffffffffffffffffffffffffffffffffffffffff1916815260200190815260200160002060006101000a81548160ff02191690831515021790555060018060006380ac58cd7c0100000000000000000000000000000000000000000000000000000000027bffffffffffffffffffffffffffffffffffffffffffffffffffffffff1916815260200190815260200160002060006101000a81548160ff0219169083151502179055506001806000635b5e139f7c0100000000000000000000000000000000000000000000000000000000027bffffffffffffffffffffffffffffffffffffffffffffffffffffffff1916815260200190815260200160002060006101000a81548160ff02191690831515021790555061259a806101a76000396000f3fe60806040526004361061011d576000357c0100000000000000000000000000000000000000000000000000000000900463ffffffff16806301ffc9a71461011f57806306fdde0314610191578063081812fc14610221578063095ea7b31461029c57806318160ddd146102ea57806323b872dd1461031557806341c0e1b51461038357806342842e0e1461039a57806342966c68146104085780634f6ccce714610443578063634282af146104925780636352211e14610546578063700319c5146105c157806370a08231146106105780638da5cb5b1461067557806395d89b41146106cc578063a22cb4651461075c578063b88d4fde146107b9578063c87b56dd146108be578063d85d3d2714610972578063e985e9c5146109eb575b005b34801561012b57600080fd5b506101776004803603602081101561014257600080fd5b8101908080357bffffffffffffffffffffffffffffffffffffffffffffffffffffffff19169060200190929190505050610a74565b604051808215151515815260200191505060405180910390f35b34801561019d57600080fd5b506101a6610adc565b6040518080602001828103825283818151815260200191508051906020019080838360005b838110156101e65780820151818401526020810190506101cb565b50505050905090810190601f1680156102135780820380516001836020036101000a031916815260200191505b509250505060405180910390f35b34801561022d57600080fd5b5061025a6004803603602081101561024457600080fd5b8101908080359060200190929190505050610b19565b604051808273ffffffffffffffffffffffffffffffffffffffff1673ffffffffffffffffffffffffffffffffffffffff16815260200191505060405180910390f35b6102e8600480360360408110156102b257600080fd5b81019080803573ffffffffffffffffffffffffffffffffffffffff16906020019092919080359060200190929190505050610b56565b005b3480156102f657600080fd5b506102ff610d4f565b6040518082815260200191505060405180910390f35b6103816004803603606081101561032b57600080fd5b81019080803573ffffffffffffffffffffffffffffffffffffffff169060200190929190803573ffffffffffffffffffffffffffffffffffffffff16906020019092919080359060200190929190505050610d5c565b005b34801561038f57600080fd5b50610398611325565b005b610406600480360360608110156103b057600080fd5b81019080803573ffffffffffffffffffffffffffffffffffffffff169060200190929190803573ffffffffffffffffffffffffffffffffffffffff16906020019092919080359060200190929190505050611449565b005b34801561041457600080fd5b506104416004803603602081101561042b57600080fd5b810190808035906020019092919050505061146a565b005b34801561044f57600080fd5b5061047c6004803603602081101561046657600080fd5b8101908080359060200190929190505050611783565b6040518082815260200191505060405180910390f35b34801561049e57600080fd5b506104cb600480360360208110156104b557600080fd5b81019080803590602001909291905050506117bb565b6040518080602001828103825283818151815260200191508051906020019080838360005b8381101561050b5780820151818401526020810190506104f0565b50505050905090810190601f1680156105385780820380516001836020036101000a031916815260200191505b509250505060405180910390f35b34801561055257600080fd5b5061057f6004803603602081101561056957600080fd5b810190808035906020019092919050505061187c565b604051808273ffffffffffffffffffffffffffffffffffffffff1673ffffffffffffffffffffffffffffffffffffffff16815260200191505060405180910390f35b3480156105cd57600080fd5b506105fa600480360360208110156105e457600080fd5b8101908080359060200190929190505050611963565b6040518082815260200191505060405180910390f35b34801561061c57600080fd5b5061065f6004803603602081101561063357600080fd5b81019080803573ffffffffffffffffffffffffffffffffffffffff169060200190929190505050611986565b6040518082815260200191505060405180910390f35b34801561068157600080fd5b5061068a611a0a565b604051808273ffffffffffffffffffffffffffffffffffffffff1673ffffffffffffffffffffffffffffffffffffffff16815260200191505060405180910390f35b3480156106d857600080fd5b506106e1611a2f565b6040518080602001828103825283818151815260200191508051906020019080838360005b83811015610721578082015181840152602081019050610706565b50505050905090810190601f16801561074e5780820380516001836020036101000a031916815260200191505b509250505060405180910390f35b34801561076857600080fd5b506107b76004803603604081101561077f57600080fd5b81019080803573ffffffffffffffffffffffffffffffffffffffff169060200190929190803515159060200190929190505050611a6c565b005b6108bc600480360360808110156107cf57600080fd5b81019080803573ffffffffffffffffffffffffffffffffffffffff169060200190929190803573ffffffffffffffffffffffffffffffffffffffff169060200190929190803590602001909291908035906020019064010000000081111561083657600080fd5b82018360208201111561084857600080fd5b8035906020019184600183028401116401000000008311171561086a57600080fd5b91908080601f016020809104026020016040519081016040528093929190818152602001838380828437600081840152601f19601f820116905080830192505050505050509192919290505050611b6d565b005b3480156108ca57600080fd5b506108f7600480360360208110156108e157600080fd5b8101908080359060200190929190505050611e5d565b6040518080602001828103825283818151815260200191508051906020019080838360005b8381101561093757808201518184015260208101905061091c565b50505050905090810190601f1680156109645780820380516001836020036101000a031916815260200191505b509250505060405180910390f35b6109e96004803603602081101561098857600080fd5b81019080803590602001906401000000008111156109a557600080fd5b8201836020820111156109b757600080fd5b803590602001918460018302840111640100000000831117156109d957600080fd5b9091929391929390505050611fa4565b005b3480156109f757600080fd5b50610a5a60048036036040811015610a0e57600080fd5b81019080803573ffffffffffffffffffffffffffffffffffffffff169060200190929190803573ffffffffffffffffffffffffffffffffffffffff169060200190929190505050612208565b604051808215151515815260200191505060405180910390f35b600060016000837bffffffffffffffffffffffffffffffffffffffffffffffffffffffff19167bffffffffffffffffffffffffffffffffffffffffffffffffffffffff1916815260200190815260200160002060009054906101000a900460ff169050919050565b60606040805190810160405280600a81526020017f4950465320544f4b454e00000000000000000000000000000000000000000000815250905090565b60006004600083815260200190815260200160002060009054906101000a900473ffffffffffffffffffffffffffffffffffffffff169050919050565b6000610b618261187c565b90506000600560008373ffffffffffffffffffffffffffffffffffffffff1673ffffffffffffffffffffffffffffffffffffffff16815260200190815260200160002060003373ffffffffffffffffffffffffffffffffffffffff1673ffffffffffffffffffffffffffffffffffffffff16815260200190815260200160002060009054906101000a900460ff1690503373ffffffffffffffffffffffffffffffffffffffff168273ffffffffffffffffffffffffffffffffffffffff161480610c285750805b1515610c9c576040517f08c379a00000000000000000000000000000000000000000000000000000000081526004018080602001828103825260158152602001807f4e6f7420617070726f766564206279206f776e6572000000000000000000000081525060200191505060405180910390fd5b836004600085815260200190815260200160002060006101000a81548173ffffffffffffffffffffffffffffffffffffffff021916908373ffffffffffffffffffffffffffffffffffffffff160217905550828473ffffffffffffffffffffffffffffffffffffffff168373ffffffffffffffffffffffffffffffffffffffff167f8c5be1e5ebec7d5bd14f71427d1e84f3dd0314c0f7b2291e5b200ac8c7c3b92560405160405180910390a450505050565b6000600880549050905090565b6000610d678261187c565b90508373ffffffffffffffffffffffffffffffffffffffff168173ffffffffffffffffffffffffffffffffffffffff16141515610e32576040517f08c379a00000000000000000000000000000000000000000000000000000000081526004018080602001828103825260238152602001807f5f66726f6d206973204e4f5420746865206f776e6572206f662074686520746f81526020017f6b656e000000000000000000000000000000000000000000000000000000000081525060400191505060405180910390fd5b600073ffffffffffffffffffffffffffffffffffffffff168373ffffffffffffffffffffffffffffffffffffffff1614151515610ed7576040517f08c379a00000000000000000000000000000000000000000000000000000000081526004018080602001828103825260188152602001807f5472616e73666572205f746f206164647265737320307830000000000000000081525060200191505060405180910390fd5b60006004600084815260200190815260200160002060009054906101000a900473ffffffffffffffffffffffffffffffffffffffff1690506000600560008473ffffffffffffffffffffffffffffffffffffffff1673ffffffffffffffffffffffffffffffffffffffff16815260200190815260200160002060003373ffffffffffffffffffffffffffffffffffffffff1673ffffffffffffffffffffffffffffffffffffffff16815260200190815260200160002060009054906101000a900460ff1690503373ffffffffffffffffffffffffffffffffffffffff168373ffffffffffffffffffffffffffffffffffffffff16148061100257503373ffffffffffffffffffffffffffffffffffffffff168273ffffffffffffffffffffffffffffffffffffffff16145b8061100a5750805b15156110a4576040517f08c379a000000000000000000000000000000000000000000000000000000000815260040180806020018281038252602b8152602001807f6d73672e73656e64657220646f6573206e6f742068617665207472616e73666581526020017f7261626c6520746f6b656e00000000000000000000000000000000000000000081525060400191505060405180910390fd5b846002600086815260200190815260200160002060006101000a81548173ffffffffffffffffffffffffffffffffffffffff021916908373ffffffffffffffffffffffffffffffffffffffff1602179055506111496001600360008973ffffffffffffffffffffffffffffffffffffffff1673ffffffffffffffffffffffffffffffffffffffff1681526020019081526020016000205461229c90919063ffffffff16565b600360008873ffffffffffffffffffffffffffffffffffffffff1673ffffffffffffffffffffffffffffffffffffffff168152602001908152602001600020819055506111df6001600360008873ffffffffffffffffffffffffffffffffffffffff1673ffffffffffffffffffffffffffffffffffffffff168152602001908152602001600020546122be90919063ffffffff16565b600360008773ffffffffffffffffffffffffffffffffffffffff1673ffffffffffffffffffffffffffffffffffffffff16815260200190815260200160002081905550600073ffffffffffffffffffffffffffffffffffffffff166004600086815260200190815260200160002060009054906101000a900473ffffffffffffffffffffffffffffffffffffffff1673ffffffffffffffffffffffffffffffffffffffff161415156112c2576004600085815260200190815260200160002060006101000a81549073ffffffffffffffffffffffffffffffffffffffff02191690555b838573ffffffffffffffffffffffffffffffffffffffff168773ffffffffffffffffffffffffffffffffffffffff167fddf252ad1be2c89b69c2b068fc378daa952ba7f163c4a11628f55a4df523b3ef60405160405180910390a4505050505050565b6000809054906101000a900473ffffffffffffffffffffffffffffffffffffffff1673ffffffffffffffffffffffffffffffffffffffff163373ffffffffffffffffffffffffffffffffffffffff1614151561140f576040517f08c379a00000000000000000000000000000000000000000000000000000000081526004018080602001828103825260228152602001807f4f6e6c79206f776e65722063616e2063616c6c20746869732066756e6374696f81526020017f6e2e00000000000000000000000000000000000000000000000000000000000081525060400191505060405180910390fd5b6000809054906101000a900473ffffffffffffffffffffffffffffffffffffffff1673ffffffffffffffffffffffffffffffffffffffff16ff5b6114658383836020604051908101604052806000815250611b6d565b505050565b60006114758261187c565b90503373ffffffffffffffffffffffffffffffffffffffff168173ffffffffffffffffffffffffffffffffffffffff16141515611540576040517f08c379a00000000000000000000000000000000000000000000000000000000081526004018080602001828103825260288152602001807f6d73672e73656e646572206973204e4f5420746865206f776e6572206f66207481526020017f686520746f6b656e00000000000000000000000000000000000000000000000081525060400191505060405180910390fd5b600073ffffffffffffffffffffffffffffffffffffffff166004600084815260200190815260200160002060009054906101000a900473ffffffffffffffffffffffffffffffffffffffff1673ffffffffffffffffffffffffffffffffffffffff161415156115e0576004600083815260200190815260200160002060006101000a81549073ffffffffffffffffffffffffffffffffffffffff02191690555b60006002600084815260200190815260200160002060006101000a81548173ffffffffffffffffffffffffffffffffffffffff021916908373ffffffffffffffffffffffffffffffffffffffff1602179055506116866001600360003373ffffffffffffffffffffffffffffffffffffffff1673ffffffffffffffffffffffffffffffffffffffff1681526020019081526020016000205461229c90919063ffffffff16565b600360003373ffffffffffffffffffffffffffffffffffffffff1673ffffffffffffffffffffffffffffffffffffffff168152602001908152602001600020819055506116d2826122df565b6000600660008481526020019081526020016000208054600181600116156101000203166002900490501415156117235760066000838152602001908152602001600020600061172291906123c1565b5b81600073ffffffffffffffffffffffffffffffffffffffff168273ffffffffffffffffffffffffffffffffffffffff167fddf252ad1be2c89b69c2b068fc378daa952ba7f163c4a11628f55a4df523b3ef60405160405180910390a45050565b600061178d610d4f565b8210151561179a57600080fd5b6008828154811015156117a957fe5b90600052602060002001549050919050565b6007818154811015156117ca57fe5b90600052602060002001600091509050806000018054600181600116156101000203166002900480601f0160208091040260200160405190810160405280929190818152602001828054600181600116156101000203166002900480156118725780601f1061184757610100808354040283529160200191611872565b820191906000526020600020905b81548152906001019060200180831161185557829003601f168201915b5050505050905081565b6000806002600084815260200190815260200160002060009054906101000a900473ffffffffffffffffffffffffffffffffffffffff169050600073ffffffffffffffffffffffffffffffffffffffff168173ffffffffffffffffffffffffffffffffffffffff161415151561195a576040517f08c379a00000000000000000000000000000000000000000000000000000000081526004018080602001828103825260108152602001807f546f6b656e20697320696e76616c69640000000000000000000000000000000081525060200191505060405180910390fd5b80915050919050565b60088181548110151561197257fe5b906000526020600020016000915090505481565b60008073ffffffffffffffffffffffffffffffffffffffff168273ffffffffffffffffffffffffffffffffffffffff16141515156119c357600080fd5b600360008373ffffffffffffffffffffffffffffffffffffffff1673ffffffffffffffffffffffffffffffffffffffff168152602001908152602001600020549050919050565b6000809054906101000a900473ffffffffffffffffffffffffffffffffffffffff1681565b60606040805190810160405280600381526020017f4950540000000000000000000000000000000000000000000000000000000000815250905090565b80600560003373ffffffffffffffffffffffffffffffffffffffff1673ffffffffffffffffffffffffffffffffffffffff16815260200190815260200160002060008473ffffffffffffffffffffffffffffffffffffffff1673ffffffffffffffffffffffffffffffffffffffff16815260200190815260200160002060006101000a81548160ff0219169083151502179055508173ffffffffffffffffffffffffffffffffffffffff163373ffffffffffffffffffffffffffffffffffffffff167f17307eab39ab6107e8899845ad3d59bd9653f200f220920489ca2b5937696c3183604051808215151515815260200191505060405180910390a35050565b611b78848484610d5c565b611b978373ffffffffffffffffffffffffffffffffffffffff166123ae565b15611e575760008373ffffffffffffffffffffffffffffffffffffffff1663150b7a02338786866040518563ffffffff167c0100000000000000000000000000000000000000000000000000000000028152600401808573ffffffffffffffffffffffffffffffffffffffff1673ffffffffffffffffffffffffffffffffffffffff1681526020018473ffffffffffffffffffffffffffffffffffffffff1673ffffffffffffffffffffffffffffffffffffffff16815260200183815260200180602001828103825283818151815260200191508051906020019080838360005b83811015611c93578082015181840152602081019050611c78565b50505050905090810190601f168015611cc05780820380516001836020036101000a031916815260200191505b5095505050505050602060405180830381600087803b158015611ce257600080fd5b505af1158015611cf6573d6000803e3d6000fd5b505050506040513d6020811015611d0c57600080fd5b8101908080519060200190929190505050905060405180807f6f6e455243373231526563656976656428616464726573732c6164647265737381526020017f2c75696e743235362c6279746573290000000000000000000000000000000000815250602f01905060405180910390207bffffffffffffffffffffffffffffffffffffffffffffffffffffffff1916817bffffffffffffffffffffffffffffffffffffffffffffffffffffffff1916141515611e55576040517f08c379a00000000000000000000000000000000000000000000000000000000081526004018080602001828103825260218152602001807f72656365697074206f6620746f6b656e206973204e4f5420636f6d706c65746581526020017f640000000000000000000000000000000000000000000000000000000000000081525060400191505060405180910390fd5b505b50505050565b606081611e7c6009600085815260200190815260200160002054611783565b141515611ef1576040517f08c379a00000000000000000000000000000000000000000000000000000000081526004018080602001828103825260148152602001807f54686520746f6b656e20697320696e76616c696400000000000000000000000081525060200191505060405180910390fd5b600660008381526020019081526020016000208054600181600116156101000203166002900480601f016020809104026020016040519081016040528092919081815260200182805460018160011615610100020316600290048015611f985780601f10611f6d57610100808354040283529160200191611f98565b820191906000526020600020905b815481529060010190602001808311611f7b57829003601f168201915b50505050509050919050565b611fac612409565b60206040519081016040528084848080601f016020809104026020016040519081016040528093929190818152602001838380828437600081840152601f19601f82011690508083019250505050505050815250905060006001600783908060018154018082558091505090600182039060005260206000200160009091929091909150600082015181600001908051906020019061204c92919061241d565b505050039050336002600083815260200190815260200160002060006101000a81548173ffffffffffffffffffffffffffffffffffffffff021916908373ffffffffffffffffffffffffffffffffffffffff1602179055506120f76001600360003373ffffffffffffffffffffffffffffffffffffffff1673ffffffffffffffffffffffffffffffffffffffff168152602001908152602001600020546122be90919063ffffffff16565b600360003373ffffffffffffffffffffffffffffffffffffffff1673ffffffffffffffffffffffffffffffffffffffff168152602001908152602001600020819055506008805490506009600083815260200190815260200160002081905550600881908060018154018082558091505090600182039060005260206000200160009091929091909150555083836006600084815260200190815260200160002091906121a592919061249d565b50803373ffffffffffffffffffffffffffffffffffffffff16600073ffffffffffffffffffffffffffffffffffffffff167fddf252ad1be2c89b69c2b068fc378daa952ba7f163c4a11628f55a4df523b3ef60405160405180910390a450505050565b6000600560008473ffffffffffffffffffffffffffffffffffffffff1673ffffffffffffffffffffffffffffffffffffffff16815260200190815260200160002060008373ffffffffffffffffffffffffffffffffffffffff1673ffffffffffffffffffffffffffffffffffffffff16815260200190815260200160002060009054906101000a900460ff16905092915050565b60008282111515156122ad57600080fd5b600082840390508091505092915050565b60008082840190508381101515156122d557600080fd5b8091505092915050565b60006122fa600160088054905061229c90919063ffffffff16565b9050600060096000848152602001908152602001600020549050600060088381548110151561232557fe5b906000526020600020015490508060088381548110151561234257fe5b9060005260206000200181905550816009600083815260200190815260200160002081905550612381600160088054905061229c90919063ffffffff16565b60088161238e919061251d565b506000600960008681526020019081526020016000208190555050505050565b600080823b905060008111915050919050565b50805460018160011615610100020316600290046000825580601f106123e75750612406565b601f0160209004906000526020600020908101906124059190612549565b5b50565b602060405190810160405280606081525090565b828054600181600116156101000203166002900490600052602060002090601f016020900481019282601f1061245e57805160ff191683800117855561248c565b8280016001018555821561248c579182015b8281111561248b578251825591602001919060010190612470565b5b5090506124999190612549565b5090565b828054600181600116156101000203166002900490600052602060002090601f016020900481019282601f106124de57803560ff191683800117855561250c565b8280016001018555821561250c579182015b8281111561250b5782358255916020019190600101906124f0565b5b5090506125199190612549565b5090565b815481835581811115612544578183600052602060002091820191016125439190612549565b5b505050565b61256b91905b8082111561256757600081600090555060010161254f565b5090565b9056fea165627a7a72305820e33f12a7608594e652f6d0aba431851b138f290ba29ccc8d9e967d58ad4100a30029",
  "source": "pragma solidity ^0.5.0;\r\n\r\nimport \"./ERC721.sol\";\r\nimport \"./ERC165.sol\";\r\nimport \"./SafeMath.sol\";\r\nimport \"./Address.sol\";\r\n\r\ncontract DeedIPFSToken is ERC721, ERC165 {\r\n\r\n    using SafeMath for uint256;\r\n    using Address for address;\r\n\r\n    address payable public owner;\r\n    mapping(bytes4 => bool) supportedInterfaces;\r\n\r\n    mapping(uint256 => address) tokenOwners;\r\n    mapping(address => uint256) balances;\r\n    mapping(uint256 => address) allowance;\r\n    mapping(address => mapping(address => bool)) operators;\r\n\r\n    mapping(uint256 => string) tokenURIs;\r\n\r\n\r\n    struct asset {\r\n        string ipfsHash;\r\n    }\r\n\r\n    asset[] public allTokens;\r\n\r\n    //for enumeration\r\n    uint256[] public allValidTokenIds; //same as allTokens but does't have invalid tokens\r\n    mapping(uint256 => uint256) private allValidTokenIndex;\r\n\r\n\r\n    modifier onlyOwner {\r\n        require(msg.sender == owner, \"Only owner can call this function.\");\r\n        _;\r\n    }\r\n\r\n    constructor() public {\r\n        owner = msg.sender;\r\n        supportedInterfaces[0x01ffc9a7] = true; //ERC165\r\n        supportedInterfaces[0x80ac58cd] = true; //ERC721\r\n        supportedInterfaces[0x5b5e139f] = true; //ERC721Metadata\r\n\r\n    }\r\n\r\n    function supportsInterface(bytes4 interfaceID) external view returns (bool){\r\n        return supportedInterfaces[interfaceID];\r\n    }\r\n\r\n    function balanceOf(address _owner) external view returns (uint256) {\r\n        require(_owner != address(0));\r\n        return balances[_owner];\r\n    }\r\n\r\n    function ownerOf(uint256 _tokenId) public view returns (address) {\r\n\r\n        address addr_owner = tokenOwners[_tokenId];\r\n        require(\r\n            addr_owner != address(0),\r\n            \"Token is invalid\"\r\n        );\r\n        return addr_owner;\r\n    }\r\n\r\n    function transferFrom(address _from, address _to, uint256 _tokenId) public payable {\r\n\r\n        address addr_owner = ownerOf(_tokenId);\r\n\r\n        require(\r\n            addr_owner == _from,\r\n            \"_from is NOT the owner of the token\"\r\n        );\r\n\r\n        require(\r\n            _to != address(0),\r\n            \"Transfer _to address 0x0\"\r\n        );\r\n\r\n        address addr_allowed = allowance[_tokenId];\r\n        bool isOp = operators[addr_owner][msg.sender];\r\n\r\n        require(\r\n            addr_owner == msg.sender || addr_allowed == msg.sender || isOp,\r\n            \"msg.sender does not have transferable token\"\r\n        );\r\n\r\n\r\n        //transfer : change the owner of the token\r\n        tokenOwners[_tokenId] = _to;\r\n        balances[_from] = balances[_from].sub(1);\r\n        balances[_to] = balances[_to].add(1);\r\n\r\n        //reset approved address\r\n        if (allowance[_tokenId] != address(0)) {\r\n            delete allowance[_tokenId];\r\n        }\r\n\r\n        emit Transfer(_from, _to, _tokenId);\r\n\r\n    }\r\n\r\n    function safeTransferFrom(address _from, address _to, uint256 _tokenId, bytes memory data) public payable {\r\n\r\n        transferFrom(_from, _to, _tokenId);\r\n\r\n        //check if _to is CA\r\n        if (_to.isContract()) {\r\n            bytes4 result = ERC721TokenReceiver(_to).onERC721Received(msg.sender, _from, _tokenId, data);\r\n\r\n            require(\r\n                result == bytes4(keccak256(\"onERC721Received(address,address,uint256,bytes)\")),\r\n                \"receipt of token is NOT completed\"\r\n            );\r\n        }\r\n\r\n    }\r\n\r\n    function safeTransferFrom(address _from, address _to, uint256 _tokenId) public payable {\r\n        safeTransferFrom(_from, _to, _tokenId, \"\");\r\n    }\r\n\r\n\r\n    function approve(address _approved, uint256 _tokenId) external payable {\r\n\r\n        address addr_owner = ownerOf(_tokenId);\r\n        bool isOp = operators[addr_owner][msg.sender];\r\n\r\n        require(\r\n            addr_owner == msg.sender || isOp,\r\n            \"Not approved by owner\"\r\n        );\r\n\r\n        allowance[_tokenId] = _approved;\r\n\r\n        emit Approval(addr_owner, _approved, _tokenId);\r\n    }\r\n\r\n    function setApprovalForAll(address _operator, bool _approved) external {\r\n        operators[msg.sender][_operator] = _approved;\r\n        emit ApprovalForAll(msg.sender, _operator, _approved);\r\n    }\r\n\r\n\r\n    function getApproved(uint256 _tokenId) external view returns (address) {\r\n        return allowance[_tokenId];\r\n    }\r\n\r\n    function isApprovedForAll(address _owner, address _operator) external view returns (bool) {\r\n        return operators[_owner][_operator];\r\n    }\r\n\r\n\r\n    //non-ERC721 standard\r\n    //\r\n    //\r\n    function () external payable {}\r\n\r\n    function mint(string calldata ipfsHash) external payable {\r\n\r\n        asset memory newAsset = asset(ipfsHash);\r\n        uint tokenId = allTokens.push(newAsset) - 1;\r\n        //token id starts from 0, index of assets array\r\n        tokenOwners[tokenId] = msg.sender;\r\n        balances[msg.sender] = balances[msg.sender].add(1);\r\n\r\n        //for enumeration\r\n        allValidTokenIndex[tokenId] = allValidTokenIds.length;\r\n        //index starts from 0\r\n        allValidTokenIds.push(tokenId);\r\n\r\n        //Token Metadata\r\n        tokenURIs[tokenId] = ipfsHash;\r\n\r\n        emit Transfer(address(0), msg.sender, tokenId);\r\n    }\r\n\r\n\r\n    function burn(uint _tokenId) external {\r\n\r\n        address addr_owner = ownerOf(_tokenId);\r\n\r\n        require(\r\n            addr_owner == msg.sender,\r\n            \"msg.sender is NOT the owner of the token\"\r\n        );\r\n\r\n        //reset approved address\r\n        if (allowance[_tokenId] != address(0)) {\r\n            delete allowance[_tokenId];\r\n            // tokenId => 0\r\n        }\r\n\r\n        //transfer : change the owner of the token, but address(0)\r\n        tokenOwners[_tokenId] = address(0);\r\n        balances[msg.sender] = balances[msg.sender].sub(1);\r\n\r\n        //for enumeration\r\n        removeInvalidToken(_tokenId);\r\n\r\n        //clear metadata if exists\r\n        if (bytes(tokenURIs[_tokenId]).length != 0) {\r\n            delete tokenURIs[_tokenId];\r\n        }\r\n\r\n        emit Transfer(addr_owner, address(0), _tokenId);\r\n    }\r\n\r\n    function removeInvalidToken(uint256 tokenIdToRemove) private {\r\n\r\n        uint256 lastIndex = allValidTokenIds.length.sub(1);\r\n        uint256 removeIndex = allValidTokenIndex[tokenIdToRemove];\r\n\r\n        uint256 lastTokenId = allValidTokenIds[lastIndex];\r\n\r\n        //swap\r\n        allValidTokenIds[removeIndex] = lastTokenId;\r\n        allValidTokenIndex[lastTokenId] = removeIndex;\r\n\r\n        //delete\r\n        //Arrays have a length member to hold their number of elements.\r\n        //Dynamic arrays can be resized in storage (not in memory) by changing the .length member.\r\n        allValidTokenIds.length = allValidTokenIds.length.sub(1);\r\n        //allValidTokenIndex is private so can't access invalid token by index programmatically\r\n        allValidTokenIndex[tokenIdToRemove] = 0;\r\n    }\r\n\r\n    //ERC721Enumerable\r\n    function totalSupply() public view returns (uint) {\r\n        return allValidTokenIds.length;\r\n    }\r\n\r\n    //ERC721Enumerable\r\n    function tokenByIndex(uint256 index) public view returns (uint256) {\r\n        require(index < totalSupply());\r\n        return allValidTokenIds[index];\r\n    }\r\n\r\n    //ERC721Metadata\r\n    function name() external pure returns (string memory) {\r\n        return \"IPFS TOKEN\";\r\n    }\r\n\r\n    //ERC721Metadata\r\n    function symbol() external pure returns (string memory) {\r\n        return \"IPT\";\r\n    }\r\n\r\n    //ERC721Metadata\r\n    function tokenURI(uint256 _tokenId) external view returns (string memory) {\r\n        require(tokenByIndex(allValidTokenIndex[_tokenId]) == _tokenId, \"The token is invalid\");\r\n        return tokenURIs[_tokenId];\r\n    }\r\n\r\n    function kill() external onlyOwner {\r\n        selfdestruct(owner);\r\n    }\r\n\r\n\r\n}\r\n\r\ncontract ERC721TokenReceiver {\r\n\r\n    function onERC721Received(address _operator, address _from, uint256 _tokenId, bytes memory _data) public returns (bytes4);\r\n}",
  "sourcePath": "/Users/camou/Projects/drizzle-dapp/contracts/DeedIPFSToken.sol",
  "compiler": {
    "name": "solc",
    "version": "0.5.0+commit.1d4f565a.Emscripten.clang"
  },
  "schemaVersion": "3.0.6",
  "updatedAt": "2019-05-27T15:25:49.025Z",
  "devdoc": {
    "methods": {}
  },
  "userdoc": {
    "methods": {}
  }
}